:04000000B2EF00F06B
:100008003C82FACF01F0FBCF02F0E9CF03F0EACF50
:1000180004F0E1CF05F0E2CF06F0D9CF07F0DACF50
:1000280008F0F3CF09F0F4CF0AF0F6CF0BF0F7CFD2
:100038000CF0F8CF0DF0F5CF0EF03CC00FF03DC03E
:1000480010F03EC011F03FC012F09EA62EEF00F057
:1000580030EF00F080EF00F0C7A435EF00F037EF85
:1000680000F044EF00F0C9CF3AF0320E3824D96ED0
:10007800000E3920DA6EDF50C96EC68844EF00F0F2
:10008800C7B449EF00F04BEF00F080EF00F0C7BABB
:1000980050EF00F052EF00F059EF00F0010E3B6E08
:1000A800C9CF3AF0C68859EF00F0C7AA5EEF00F052
:1000B80060EF00F080EF00F03B50D8B466EF00F03E
:1000C80068EF00F06FEF00F0C9CF38F0396A000E22
:1000D8003B6E71EF00F0C9CF3AF0C6AE76EF00F094
:1000E80078EF00F07BEF00F0C69EC9CF3AF0C688E3
:1000F80080EF00F080EF00F0A1A685EF00F087EF19
:1001080000F08BEF00F0C9CF3AF0A196C6889E9612
:1001180012C03FF011C03EF010C03DF00FC03CF0DF
:100128000EC0F5FF0DC0F8FF0CC0F7FF0BC0F6FFBF
:100138000AC0F4FF09C0F3FF08C0DAFF07C0D9FFFF
:1001480006C0E2FF05C0E1FF04C0EAFF03C0E9FF03
:1001580002C0FBFF01C0FAFF3C92110060EF02F001
:10016800000E296E010E206E2A682B68000E2D6E77
:10017800000E2C6E9BEC02F0000E806E000E896E55
:10018800000E816E000E8A6E000E826E000E8B6E5F
:100198009388938A938C938E949094829484948673
:1001A8009488948A948C948E8280800E7E6E010E40
:1001B8007F6E9D0EC06E000E146ED20E136E85EC0F
:1001C80002F0000E2F6E000E2E6E600E2E5CEA0EF0
:1001D8002F58D8A0F2EF00F0F4EF00F0F8EF00F09D
:1001E80007EF01F007EF01F02E4A2F2A600E2E5C70
:1001F800EA0E2F58D8A003EF01F005EF01F0F8EF51
:1002080000F007EF01F0000E2F6E000E2E6E0DEFBE
:1002180001F0050E37EC02F013C021F014C022F0F3
:10022800060E37EC02F013C023F014C024F0070EBA
:1002380037EC02F013C025F014C026F0080E37EC96
:1002480002F013C027F014C028F08280C250C30BFC
:100258001009C26E939A7F96819A938A0B0E37EC97
:1002680002F013C030F014C031F02050D8B43FEF82
:1002780001F041EF01F069EF01F02A50305C2B509A
:100288003158D8B04AEF01F04CEF01F052EF01F0CD
:1002980030C02AF031C02BF052EF01F02E4A2F2A3D
:1002A800B90E2E5C0B0E2F58D8A05DEF01F05FEF52
:1002B80001F0C7EF01F0000E206E600E2A5E000EFE
:1002C8002B5AC7EF01F0C7EF01F02950D8B46FEFF0
:1002D80001F071EF01F09BEF01F030502A5C3150D2
:1002E8002B58D8B07AEF01F07CEF01F080EF01F0E5
:1002F8002C4A2D2A86EF01F0000E2D6E000E2C6E72
:1003080086EF01F02D5009E1C90E2C5CD8A08FEFC3
:1003180001F091EF01F0C7EF01F0000E296E000E19
:100328002D6E000E2C6EC7EF01F0C7EF01F03050B4
:100338002A5C31502B58D8A0A4EF01F0A6EF01F0A9
:10034800AAEF01F02C4A2D2AB0EF01F0000E2D6E15
:10035800000E2C6EB0EF01F02D5009E1040E2C5C5C
:10036800D8A0B9EF01F0BBEF01F0C7EF01F0010E23
:10037800296E000E2D6E000E2C6EC7EF01F0C7EF30
:1003880001F0C7EF01F021C032F023C033F025C0DF
:1003980034F027C035F027C018F028C019F0D890DD
:1003A80019321832D89019321832C00E181625C0D2
:1003B8001AF026C01BF0040E1C6ED8901B321A329D
:1003C8001C2EE1EF01F0300E1A1623C01DF024C0D8
:1003D8001EF0060E1F6ED8901E321D321F2EEFEF34
:1003E80001F00C0E1D162250030B1D101A101810C8
:1003F800366E81BE02EF02F006EF02F0186A182A84
:1004080007EF02F0186A29C019F0193AF00E191608
:1004180082BA11EF02F015EF02F0080E1A6E16EF0D
:1004280002F01A6A82B81BEF02F01FEF02F0040E06
:100438001B6E20EF02F01B6A82BE25EF02F029EF47
:1004480002F01C6A1C2A2AEF02F01C6AD8901C349D
:100458001B101A1019101810376E0DEF01F00DEF60
:1004680001F0B2EF00F0176E17C015F015461546EB
:10047800C2501518C30B1518C26EC280350EE82E6F
:10048800FED700F0C28249EF02F0C2B24EEF02F08E
:1004980050EF02F049EF02F052EF02F0C350C4CF20
:1004A80015F0166A15C016F0156A1510136E165059
:1004B800146E5FEF02F01200400EF66E050EF76E36
:1004C800000EF86E0900F5CF3BF000EE32F0090E91
:1004D800EE6AE806FDE13C903C920001B4EF00F0C2
:1004E800000E896E000E8A6E000E8B6E370E926EAD
:1004F800F00E936E9468000E786E000E776EF18E93
:100508001200800EC76E13C0C8FF360EC66E010EED
:10051800C56E9E96A196A0869D86F28CF28E1200DC
:10052800700ED36E040ED26E400E9B6E120074ECE9
:0905380002F094EC02F012000143
:020000040020DA
:08000000FFFFFFFFFFFFFFFF00
:020000040030CA
:0E000000FF28191EFF8801FF03C003E0034024
:00000001FF
